{
  "_format": "hh-sol-artifact-1",
  "contractName": "MyEpicNFT",
  "sourceName": "contracts/MyEpicNFT.sol",
  "abi": [
    {
      "inputs": [],
      "stateMutability": "nonpayable",
      "type": "constructor"
    },
    {
      "anonymous": false,
      "inputs": [
        {
          "indexed": true,
          "internalType": "address",
          "name": "owner",
          "type": "address"
        },
        {
          "indexed": true,
          "internalType": "address",
          "name": "approved",
          "type": "address"
        },
        {
          "indexed": true,
          "internalType": "uint256",
          "name": "tokenId",
          "type": "uint256"
        }
      ],
      "name": "Approval",
      "type": "event"
    },
    {
      "anonymous": false,
      "inputs": [
        {
          "indexed": true,
          "internalType": "address",
          "name": "owner",
          "type": "address"
        },
        {
          "indexed": true,
          "internalType": "address",
          "name": "operator",
          "type": "address"
        },
        {
          "indexed": false,
          "internalType": "bool",
          "name": "approved",
          "type": "bool"
        }
      ],
      "name": "ApprovalForAll",
      "type": "event"
    },
    {
      "anonymous": false,
      "inputs": [
        {
          "indexed": false,
          "internalType": "address",
          "name": "sender",
          "type": "address"
        },
        {
          "indexed": false,
          "internalType": "uint256",
          "name": "tokenId",
          "type": "uint256"
        }
      ],
      "name": "NewEpicNFTMinted",
      "type": "event"
    },
    {
      "anonymous": false,
      "inputs": [
        {
          "indexed": true,
          "internalType": "address",
          "name": "from",
          "type": "address"
        },
        {
          "indexed": true,
          "internalType": "address",
          "name": "to",
          "type": "address"
        },
        {
          "indexed": true,
          "internalType": "uint256",
          "name": "tokenId",
          "type": "uint256"
        }
      ],
      "name": "Transfer",
      "type": "event"
    },
    {
      "inputs": [
        {
          "internalType": "address",
          "name": "to",
          "type": "address"
        },
        {
          "internalType": "uint256",
          "name": "tokenId",
          "type": "uint256"
        }
      ],
      "name": "approve",
      "outputs": [],
      "stateMutability": "nonpayable",
      "type": "function"
    },
    {
      "inputs": [
        {
          "internalType": "address",
          "name": "owner",
          "type": "address"
        }
      ],
      "name": "balanceOf",
      "outputs": [
        {
          "internalType": "uint256",
          "name": "",
          "type": "uint256"
        }
      ],
      "stateMutability": "view",
      "type": "function"
    },
    {
      "inputs": [
        {
          "internalType": "uint256",
          "name": "tokenId",
          "type": "uint256"
        }
      ],
      "name": "getApproved",
      "outputs": [
        {
          "internalType": "address",
          "name": "",
          "type": "address"
        }
      ],
      "stateMutability": "view",
      "type": "function"
    },
    {
      "inputs": [],
      "name": "getTotalNFTsMintedSoFar",
      "outputs": [
        {
          "internalType": "uint256",
          "name": "",
          "type": "uint256"
        }
      ],
      "stateMutability": "view",
      "type": "function"
    },
    {
      "inputs": [
        {
          "internalType": "address",
          "name": "owner",
          "type": "address"
        },
        {
          "internalType": "address",
          "name": "operator",
          "type": "address"
        }
      ],
      "name": "isApprovedForAll",
      "outputs": [
        {
          "internalType": "bool",
          "name": "",
          "type": "bool"
        }
      ],
      "stateMutability": "view",
      "type": "function"
    },
    {
      "inputs": [],
      "name": "makeAnEpicNFT",
      "outputs": [],
      "stateMutability": "nonpayable",
      "type": "function"
    },
    {
      "inputs": [],
      "name": "name",
      "outputs": [
        {
          "internalType": "string",
          "name": "",
          "type": "string"
        }
      ],
      "stateMutability": "view",
      "type": "function"
    },
    {
      "inputs": [
        {
          "internalType": "uint256",
          "name": "tokenId",
          "type": "uint256"
        }
      ],
      "name": "ownerOf",
      "outputs": [
        {
          "internalType": "address",
          "name": "",
          "type": "address"
        }
      ],
      "stateMutability": "view",
      "type": "function"
    },
    {
      "inputs": [
        {
          "internalType": "uint256",
          "name": "tokenId",
          "type": "uint256"
        }
      ],
      "name": "pickRandomColor",
      "outputs": [
        {
          "internalType": "string",
          "name": "",
          "type": "string"
        }
      ],
      "stateMutability": "view",
      "type": "function"
    },
    {
      "inputs": [
        {
          "internalType": "uint256",
          "name": "tokenId",
          "type": "uint256"
        }
      ],
      "name": "pickRandomFirstWord",
      "outputs": [
        {
          "internalType": "string",
          "name": "",
          "type": "string"
        }
      ],
      "stateMutability": "view",
      "type": "function"
    },
    {
      "inputs": [
        {
          "internalType": "uint256",
          "name": "tokenId",
          "type": "uint256"
        }
      ],
      "name": "pickRandomSecondWord",
      "outputs": [
        {
          "internalType": "string",
          "name": "",
          "type": "string"
        }
      ],
      "stateMutability": "view",
      "type": "function"
    },
    {
      "inputs": [
        {
          "internalType": "uint256",
          "name": "tokenId",
          "type": "uint256"
        }
      ],
      "name": "pickRandomThirdWord",
      "outputs": [
        {
          "internalType": "string",
          "name": "",
          "type": "string"
        }
      ],
      "stateMutability": "view",
      "type": "function"
    },
    {
      "inputs": [
        {
          "internalType": "address",
          "name": "from",
          "type": "address"
        },
        {
          "internalType": "address",
          "name": "to",
          "type": "address"
        },
        {
          "internalType": "uint256",
          "name": "tokenId",
          "type": "uint256"
        }
      ],
      "name": "safeTransferFrom",
      "outputs": [],
      "stateMutability": "nonpayable",
      "type": "function"
    },
    {
      "inputs": [
        {
          "internalType": "address",
          "name": "from",
          "type": "address"
        },
        {
          "internalType": "address",
          "name": "to",
          "type": "address"
        },
        {
          "internalType": "uint256",
          "name": "tokenId",
          "type": "uint256"
        },
        {
          "internalType": "bytes",
          "name": "data",
          "type": "bytes"
        }
      ],
      "name": "safeTransferFrom",
      "outputs": [],
      "stateMutability": "nonpayable",
      "type": "function"
    },
    {
      "inputs": [
        {
          "internalType": "address",
          "name": "operator",
          "type": "address"
        },
        {
          "internalType": "bool",
          "name": "approved",
          "type": "bool"
        }
      ],
      "name": "setApprovalForAll",
      "outputs": [],
      "stateMutability": "nonpayable",
      "type": "function"
    },
    {
      "inputs": [
        {
          "internalType": "bytes4",
          "name": "interfaceId",
          "type": "bytes4"
        }
      ],
      "name": "supportsInterface",
      "outputs": [
        {
          "internalType": "bool",
          "name": "",
          "type": "bool"
        }
      ],
      "stateMutability": "view",
      "type": "function"
    },
    {
      "inputs": [],
      "name": "symbol",
      "outputs": [
        {
          "internalType": "string",
          "name": "",
          "type": "string"
        }
      ],
      "stateMutability": "view",
      "type": "function"
    },
    {
      "inputs": [
        {
          "internalType": "uint256",
          "name": "tokenId",
          "type": "uint256"
        }
      ],
      "name": "tokenURI",
      "outputs": [
        {
          "internalType": "string",
          "name": "",
          "type": "string"
        }
      ],
      "stateMutability": "view",
      "type": "function"
    },
    {
      "inputs": [
        {
          "internalType": "address",
          "name": "from",
          "type": "address"
        },
        {
          "internalType": "address",
          "name": "to",
          "type": "address"
        },
        {
          "internalType": "uint256",
          "name": "tokenId",
          "type": "uint256"
        }
      ],
      "name": "transferFrom",
      "outputs": [],
      "stateMutability": "nonpayable",
      "type": "function"
    }
  ],
  "bytecode": "0x608060405260405180610100016040528060d3815260200162004e7860d39139600890816200002f91906200100f565b5060405180608001604052806056815260200162004f4b60569139600990816200005a91906200100f565b50604051806101a001604052806040518060400160405280600681526020017f447265616d79000000000000000000000000000000000000000000000000000081525081526020016040518060400160405280600481526020017f536578790000000000000000000000000000000000000000000000000000000081525081526020016040518060400160405280600981526020017f4e6f746f72696f7573000000000000000000000000000000000000000000000081525081526020016040518060400160405280600481526020017f4c617a790000000000000000000000000000000000000000000000000000000081525081526020016040518060400160405280600d81526020017f466c61626265726761737465640000000000000000000000000000000000000081525081526020016040518060400160405280600581526020017f5768696e7900000000000000000000000000000000000000000000000000000081525081526020016040518060400160405280600881526020017f446570726976656400000000000000000000000000000000000000000000000081525081526020016040518060400160405280600681526020017f536c65657079000000000000000000000000000000000000000000000000000081525081526020016040518060400160405280600581526020017f536361727900000000000000000000000000000000000000000000000000000081525081526020016040518060400160405280600481526020017f55676c790000000000000000000000000000000000000000000000000000000081525081526020016040518060400160405280600681526020017f507265747479000000000000000000000000000000000000000000000000000081525081526020016040518060400160405280600581526020017f48756e6b7900000000000000000000000000000000000000000000000000000081525081526020016040518060400160405280600481526020017f4769676100000000000000000000000000000000000000000000000000000000815250815250600a90600d6200037692919062000b88565b506040518061010001604052806040518060400160405280600781526020017f457863697465640000000000000000000000000000000000000000000000000081525081526020016040518060400160405280600981526020017f446570726573736564000000000000000000000000000000000000000000000081525081526020016040518060400160405280600681526020017f4a6f7669616c000000000000000000000000000000000000000000000000000081525081526020016040518060400160405280600981526020017f436f6e747269766564000000000000000000000000000000000000000000000081525081526020016040518060400160405280600981526020017f53706972697475616c000000000000000000000000000000000000000000000081525081526020016040518060400160405280600481526020017f4c616d650000000000000000000000000000000000000000000000000000000081525081526020016040518060400160405280600881526020017f467265616b696e6700000000000000000000000000000000000000000000000081525081526020016040518060400160405280600881526020017f5465727269626c65000000000000000000000000000000000000000000000000815250815250600b9060086200056b92919062000be8565b506040518061018001604052806040518060400160405280600581526020017f4e696e6a6100000000000000000000000000000000000000000000000000000081525081526020016040518060400160405280600781526020017f556e69636f726e0000000000000000000000000000000000000000000000000081525081526020016040518060400160405280600481526020017f4d6f6e6b0000000000000000000000000000000000000000000000000000000081525081526020016040518060400160405280600581526020017f50616e646100000000000000000000000000000000000000000000000000000081525081526020016040518060400160405280600381526020017f436f77000000000000000000000000000000000000000000000000000000000081525081526020016040518060400160405280600781526020017f53616d757261690000000000000000000000000000000000000000000000000081525081526020016040518060400160405280600781526020017f456d7065726f720000000000000000000000000000000000000000000000000081525081526020016040518060400160405280600481526020017f436861640000000000000000000000000000000000000000000000000000000081525081526020016040518060400160405280600481526020017f4c6164790000000000000000000000000000000000000000000000000000000081525081526020016040518060400160405280600481526020017f436869630000000000000000000000000000000000000000000000000000000081525081526020016040518060400160405280600581526020017f4d6163686f00000000000000000000000000000000000000000000000000000081525081526020016040518060400160405280600381526020017f4d616e0000000000000000000000000000000000000000000000000000000000815250815250600c90600c6200084c92919062000c48565b506040518060c001604052806040518060400160405280600381526020017f726564000000000000000000000000000000000000000000000000000000000081525081526020016040518060400160405280600781526020017f233038433241380000000000000000000000000000000000000000000000000081525081526020016040518060400160405280600581526020017f626c61636b00000000000000000000000000000000000000000000000000000081525081526020016040518060400160405280600481526020017f626c75650000000000000000000000000000000000000000000000000000000081525081526020016040518060400160405280600581526020017f677265656e00000000000000000000000000000000000000000000000000000081525081526020016040518060400160405280600681526020017f707572706c650000000000000000000000000000000000000000000000000000815250815250600d906006620009ca92919062000ca8565b50348015620009d857600080fd5b506040518060400160405280600981526020017f5371756172654e465400000000000000000000000000000000000000000000008152506040518060400160405280600681526020017f5351554152450000000000000000000000000000000000000000000000000000815250816000908162000a5691906200100f565b50806001908162000a6891906200100f565b50505062000ab66040518060400160405280601e81526020017f54686973206973206d79204e465420636f6e74726163742e20576f616821000081525062000abc60201b620011891760201c565b620011a9565b62000b5c8160405160240162000ad3919062001185565b6040516020818303038152906040527f41304fac000000000000000000000000000000000000000000000000000000007bffffffffffffffffffffffffffffffffffffffffffffffffffffffff19166020820180517bffffffffffffffffffffffffffffffffffffffffffffffffffffffff838183161783525050505062000b5f60201b60201c565b50565b60008151905060006a636f6e736f6c652e6c6f679050602083016000808483855afa5050505050565b82805482825590600052602060002090810192821562000bd5579160200282015b8281111562000bd457825182908162000bc391906200100f565b509160200191906001019062000ba9565b5b50905062000be4919062000d08565b5090565b82805482825590600052602060002090810192821562000c35579160200282015b8281111562000c3457825182908162000c2391906200100f565b509160200191906001019062000c09565b5b50905062000c44919062000d08565b5090565b82805482825590600052602060002090810192821562000c95579160200282015b8281111562000c9457825182908162000c8391906200100f565b509160200191906001019062000c69565b5b50905062000ca4919062000d08565b5090565b82805482825590600052602060002090810192821562000cf5579160200282015b8281111562000cf457825182908162000ce391906200100f565b509160200191906001019062000cc9565b5b50905062000d04919062000d08565b5090565b5b8082111562000d2c576000818162000d22919062000d30565b5060010162000d09565b5090565b50805462000d3e9062000dfe565b6000825580601f1062000d52575062000d73565b601f01602090049060005260206000209081019062000d72919062000d76565b5b50565b5b8082111562000d9157600081600090555060010162000d77565b5090565b600081519050919050565b7f4e487b7100000000000000000000000000000000000000000000000000000000600052604160045260246000fd5b7f4e487b7100000000000000000000000000000000000000000000000000000000600052602260045260246000fd5b6000600282049050600182168062000e1757607f821691505b60208210810362000e2d5762000e2c62000dcf565b5b50919050565b60008190508160005260206000209050919050565b60006020601f8301049050919050565b600082821b905092915050565b60006008830262000e977fffffffffffffffffffffffffffffffffffffffffffffffffffffffffffffffff8262000e58565b62000ea3868362000e58565b95508019841693508086168417925050509392505050565b6000819050919050565b6000819050919050565b600062000ef062000eea62000ee48462000ebb565b62000ec5565b62000ebb565b9050919050565b6000819050919050565b62000f0c8362000ecf565b62000f2462000f1b8262000ef7565b84845462000e65565b825550505050565b600090565b62000f3b62000f2c565b62000f4881848462000f01565b505050565b5b8181101562000f705762000f6460008262000f31565b60018101905062000f4e565b5050565b601f82111562000fbf5762000f898162000e33565b62000f948462000e48565b8101602085101562000fa4578190505b62000fbc62000fb38562000e48565b83018262000f4d565b50505b505050565b600082821c905092915050565b600062000fe46000198460080262000fc4565b1980831691505092915050565b600062000fff838362000fd1565b9150826002028217905092915050565b6200101a8262000d95565b67ffffffffffffffff81111562001036576200103562000da0565b5b62001042825462000dfe565b6200104f82828562000f74565b600060209050601f83116001811462001087576000841562001072578287015190505b6200107e858262000ff1565b865550620010ee565b601f198416620010978662000e33565b60005b82811015620010c1578489015182556001820191506020850194506020810190506200109a565b86831015620010e15784890151620010dd601f89168262000fd1565b8355505b6001600288020188555050505b505050505050565b600082825260208201905092915050565b60005b83811015620011275780820151818401526020810190506200110a565b60008484015250505050565b6000601f19601f8301169050919050565b6000620011518262000d95565b6200115d8185620010f6565b93506200116f81856020860162001107565b6200117a8162001133565b840191505092915050565b60006020820190508181036000830152620011a1818462001144565b905092915050565b613cbf80620011b96000396000f3fe608060405234801561001057600080fd5b50600436106101215760003560e01c80636352211e116100ad578063b88d4fde11610071578063b88d4fde14610340578063c575757a1461035c578063c87b56dd1461038c578063de9d132f146103bc578063e985e9c5146103c657610121565b80636352211e1461027657806370a08231146102a657806395d89b41146102d6578063a22cb465146102f4578063b187301f1461031057610121565b8063095ea7b3116100f4578063095ea7b3146101c257806323b872dd146101de5780632de38d68146101fa57806342842e0e1461022a578063514dc8c61461024657610121565b806301ffc9a714610126578063060475901461015657806306fdde0314610174578063081812fc14610192575b600080fd5b610140600480360381019061013b91906124e8565b6103f6565b60405161014d9190612530565b60405180910390f35b61015e6104d8565b60405161016b9190612564565b60405180910390f35b61017c6104fa565b604051610189919061260f565b60405180910390f35b6101ac60048036038101906101a7919061265d565b61058c565b6040516101b991906126cb565b60405180910390f35b6101dc60048036038101906101d79190612712565b6105d2565b005b6101f860048036038101906101f39190612752565b6106e9565b005b610214600480360381019061020f919061265d565b610749565b604051610221919061260f565b60405180910390f35b610244600480360381019061023f9190612752565b610841565b005b610260600480360381019061025b919061265d565b610861565b60405161026d919061260f565b60405180910390f35b610290600480360381019061028b919061265d565b610959565b60405161029d91906126cb565b60405180910390f35b6102c060048036038101906102bb91906127a5565b6109df565b6040516102cd9190612564565b60405180910390f35b6102de610a96565b6040516102eb919061260f565b60405180910390f35b61030e600480360381019061030991906127fe565b610b28565b005b61032a6004803603810190610325919061265d565b610b3e565b604051610337919061260f565b60405180910390f35b61035a60048036038101906103559190612973565b610c36565b005b6103766004803603810190610371919061265d565b610c98565b604051610383919061260f565b60405180910390f35b6103a660048036038101906103a1919061265d565b610d90565b6040516103b3919061260f565b60405180910390f35b6103c4610ea2565b005b6103e060048036038101906103db91906129f6565b6110f5565b6040516103ed9190612530565b60405180910390f35b60007f80ac58cd000000000000000000000000000000000000000000000000000000007bffffffffffffffffffffffffffffffffffffffffffffffffffffffff1916827bffffffffffffffffffffffffffffffffffffffffffffffffffffffff191614806104c157507f5b5e139f000000000000000000000000000000000000000000000000000000007bffffffffffffffffffffffffffffffffffffffffffffffffffffffff1916827bffffffffffffffffffffffffffffffffffffffffffffffffffffffff1916145b806104d157506104d082611222565b5b9050919050565b60008060016104e7600761128c565b6104f19190612a65565b90508091505090565b60606000805461050990612ac8565b80601f016020809104026020016040519081016040528092919081815260200182805461053590612ac8565b80156105825780601f1061055757610100808354040283529160200191610582565b820191906000526020600020905b81548152906001019060200180831161056557829003601f168201915b5050505050905090565b60006105978261129a565b6004600083815260200190815260200160002060009054906101000a900473ffffffffffffffffffffffffffffffffffffffff169050919050565b60006105dd82610959565b90508073ffffffffffffffffffffffffffffffffffffffff168373ffffffffffffffffffffffffffffffffffffffff160361064d576040517f08c379a000000000000000000000000000000000000000000000000000000000815260040161064490612b6b565b60405180910390fd5b8073ffffffffffffffffffffffffffffffffffffffff1661066c6112e5565b73ffffffffffffffffffffffffffffffffffffffff16148061069b575061069a816106956112e5565b6110f5565b5b6106da576040517f08c379a00000000000000000000000000000000000000000000000000000000081526004016106d190612bfd565b60405180910390fd5b6106e483836112ed565b505050565b6106fa6106f46112e5565b826113a6565b610739576040517f08c379a000000000000000000000000000000000000000000000000000000000815260040161073090612c8f565b60405180910390fd5b61074483838361143b565b505050565b6060600061077d61075984611734565b6040516020016107699190612d37565b604051602081830303815290604052611802565b9050600a80549050816107909190612d88565b9050600a81815481106107a6576107a5612db9565b5b9060005260206000200180546107bb90612ac8565b80601f01602080910402602001604051908101604052809291908181526020018280546107e790612ac8565b80156108345780601f1061080957610100808354040283529160200191610834565b820191906000526020600020905b81548152906001019060200180831161081757829003601f168201915b5050505050915050919050565b61085c83838360405180602001604052806000815250610c36565b505050565b6060600061089561087184611734565b6040516020016108819190612e34565b604051602081830303815290604052611802565b9050600d80549050816108a89190612d88565b9050600d81815481106108be576108bd612db9565b5b9060005260206000200180546108d390612ac8565b80601f01602080910402602001604051908101604052809291908181526020018280546108ff90612ac8565b801561094c5780601f106109215761010080835404028352916020019161094c565b820191906000526020600020905b81548152906001019060200180831161092f57829003601f168201915b5050505050915050919050565b60008061096583611835565b9050600073ffffffffffffffffffffffffffffffffffffffff168173ffffffffffffffffffffffffffffffffffffffff16036109d6576040517f08c379a00000000000000000000000000000000000000000000000000000000081526004016109cd90612ea2565b60405180910390fd5b80915050919050565b60008073ffffffffffffffffffffffffffffffffffffffff168273ffffffffffffffffffffffffffffffffffffffff1603610a4f576040517f08c379a0000000000000000000000000000000000000000000000000000000008152600401610a4690612f34565b60405180910390fd5b600360008373ffffffffffffffffffffffffffffffffffffffff1673ffffffffffffffffffffffffffffffffffffffff168152602001908152602001600020549050919050565b606060018054610aa590612ac8565b80601f0160208091040260200160405190810160405280929190818152602001828054610ad190612ac8565b8015610b1e5780601f10610af357610100808354040283529160200191610b1e565b820191906000526020600020905b815481529060010190602001808311610b0157829003601f168201915b5050505050905090565b610b3a610b336112e5565b8383611872565b5050565b60606000610b72610b4e84611734565b604051602001610b5e9190612fa0565b604051602081830303815290604052611802565b9050600b8054905081610b859190612d88565b9050600b8181548110610b9b57610b9a612db9565b5b906000526020600020018054610bb090612ac8565b80601f0160208091040260200160405190810160405280929190818152602001828054610bdc90612ac8565b8015610c295780601f10610bfe57610100808354040283529160200191610c29565b820191906000526020600020905b815481529060010190602001808311610c0c57829003601f168201915b5050505050915050919050565b610c47610c416112e5565b836113a6565b610c86576040517f08c379a0000000000000000000000000000000000000000000000000000000008152600401610c7d90612c8f565b60405180910390fd5b610c92848484846119de565b50505050565b60606000610ccc610ca884611734565b604051602001610cb8919061300e565b604051602081830303815290604052611802565b9050600c8054905081610cdf9190612d88565b9050600c8181548110610cf557610cf4612db9565b5b906000526020600020018054610d0a90612ac8565b80601f0160208091040260200160405190810160405280929190818152602001828054610d3690612ac8565b8015610d835780601f10610d5857610100808354040283529160200191610d83565b820191906000526020600020905b815481529060010190602001808311610d6657829003601f168201915b5050505050915050919050565b6060610d9b8261129a565b6000600660008481526020019081526020016000208054610dbb90612ac8565b80601f0160208091040260200160405190810160405280929190818152602001828054610de790612ac8565b8015610e345780601f10610e0957610100808354040283529160200191610e34565b820191906000526020600020905b815481529060010190602001808311610e1757829003601f168201915b505050505090506000610e45611a3a565b90506000815103610e5a578192505050610e9d565b600082511115610e8f578082604051602001610e77929190613030565b60405160208183030381529060405292505050610e9d565b610e9884611a51565b925050505b919050565b60646001610eb0600761128c565b610eba9190612a65565b1115610efb576040517f08c379a0000000000000000000000000000000000000000000000000000000008152600401610ef2906130a0565b60405180910390fd5b6000610f07600761128c565b90506000610f1482610749565b90506000610f2183610b3e565b90506000610f2e84610c98565b90506000838383604051602001610f47939291906130c0565b60405160208183030381529060405290506000610f6386610861565b90506000600882600985604051602001610f8094939291906131d5565b60405160208183030381529060405290506000610fc584610fa084611ab9565b604051602001610fb1929190613374565b604051602081830303815290604052611ab9565b9050600081604051602001610fda9190613405565b60405160208183030381529060405290506110296040518060400160405280601581526020017f0a2d2d2d2d2d2d2d2d2d2d2d2d2d2d2d2d2d2d2d2d0000000000000000000000815250611189565b61103281611189565b6110706040518060400160405280601581526020017f2d2d2d2d2d2d2d2d2d2d2d2d2d2d2d2d2d2d2d2d0a0000000000000000000000815250611189565b61107a338a611c31565b6110848982611c4f565b61108e6007611cbc565b6110b1604051806060016040528060258152602001613c25602591398a33611cd2565b7febb98688741ffa4c7589bf325de30cf7becb63de567842e1ccdb6cb949fdc82c338a6040516110e2929190613427565b60405180910390a1505050505050505050565b6000600560008473ffffffffffffffffffffffffffffffffffffffff1673ffffffffffffffffffffffffffffffffffffffff16815260200190815260200160002060008373ffffffffffffffffffffffffffffffffffffffff1673ffffffffffffffffffffffffffffffffffffffff16815260200190815260200160002060009054906101000a900460ff16905092915050565b61121f8160405160240161119d919061260f565b6040516020818303038152906040527f41304fac000000000000000000000000000000000000000000000000000000007bffffffffffffffffffffffffffffffffffffffffffffffffffffffff19166020820180517bffffffffffffffffffffffffffffffffffffffffffffffffffffffff8381831617835250505050611d71565b50565b60007f01ffc9a7000000000000000000000000000000000000000000000000000000007bffffffffffffffffffffffffffffffffffffffffffffffffffffffff1916827bffffffffffffffffffffffffffffffffffffffffffffffffffffffff1916149050919050565b600081600001549050919050565b6112a381611d9a565b6112e2576040517f08c379a00000000000000000000000000000000000000000000000000000000081526004016112d990612ea2565b60405180910390fd5b50565b600033905090565b816004600083815260200190815260200160002060006101000a81548173ffffffffffffffffffffffffffffffffffffffff021916908373ffffffffffffffffffffffffffffffffffffffff160217905550808273ffffffffffffffffffffffffffffffffffffffff1661136083610959565b73ffffffffffffffffffffffffffffffffffffffff167f8c5be1e5ebec7d5bd14f71427d1e84f3dd0314c0f7b2291e5b200ac8c7c3b92560405160405180910390a45050565b6000806113b283610959565b90508073ffffffffffffffffffffffffffffffffffffffff168473ffffffffffffffffffffffffffffffffffffffff1614806113f457506113f381856110f5565b5b8061143257508373ffffffffffffffffffffffffffffffffffffffff1661141a8461058c565b73ffffffffffffffffffffffffffffffffffffffff16145b91505092915050565b8273ffffffffffffffffffffffffffffffffffffffff1661145b82610959565b73ffffffffffffffffffffffffffffffffffffffff16146114b1576040517f08c379a00000000000000000000000000000000000000000000000000000000081526004016114a8906134c2565b60405180910390fd5b600073ffffffffffffffffffffffffffffffffffffffff168273ffffffffffffffffffffffffffffffffffffffff1603611520576040517f08c379a000000000000000000000000000000000000000000000000000000000815260040161151790613554565b60405180910390fd5b61152d8383836001611ddb565b8273ffffffffffffffffffffffffffffffffffffffff1661154d82610959565b73ffffffffffffffffffffffffffffffffffffffff16146115a3576040517f08c379a000000000000000000000000000000000000000000000000000000000815260040161159a906134c2565b60405180910390fd5b6004600082815260200190815260200160002060006101000a81549073ffffffffffffffffffffffffffffffffffffffff02191690556001600360008573ffffffffffffffffffffffffffffffffffffffff1673ffffffffffffffffffffffffffffffffffffffff168152602001908152602001600020600082825403925050819055506001600360008473ffffffffffffffffffffffffffffffffffffffff1673ffffffffffffffffffffffffffffffffffffffff16815260200190815260200160002060008282540192505081905550816002600083815260200190815260200160002060006101000a81548173ffffffffffffffffffffffffffffffffffffffff021916908373ffffffffffffffffffffffffffffffffffffffff160217905550808273ffffffffffffffffffffffffffffffffffffffff168473ffffffffffffffffffffffffffffffffffffffff167fddf252ad1be2c89b69c2b068fc378daa952ba7f163c4a11628f55a4df523b3ef60405160405180910390a461172f8383836001611f01565b505050565b60606000600161174384611f07565b01905060008167ffffffffffffffff81111561176257611761612848565b5b6040519080825280601f01601f1916602001820160405280156117945781602001600182028036833780820191505090505b509050600082602001820190505b6001156117f7578080600190039150507f3031323334353637383961626364656600000000000000000000000000000000600a86061a8153600a85816117eb576117ea612d59565b5b049450600085036117a2575b819350505050919050565b6000816040516020016118159190613574565b6040516020818303038152906040528051906020012060001c9050919050565b60006002600083815260200190815260200160002060009054906101000a900473ffffffffffffffffffffffffffffffffffffffff169050919050565b8173ffffffffffffffffffffffffffffffffffffffff168373ffffffffffffffffffffffffffffffffffffffff16036118e0576040517f08c379a00000000000000000000000000000000000000000000000000000000081526004016118d7906135d7565b60405180910390fd5b80600560008573ffffffffffffffffffffffffffffffffffffffff1673ffffffffffffffffffffffffffffffffffffffff16815260200190815260200160002060008473ffffffffffffffffffffffffffffffffffffffff1673ffffffffffffffffffffffffffffffffffffffff16815260200190815260200160002060006101000a81548160ff0219169083151502179055508173ffffffffffffffffffffffffffffffffffffffff168373ffffffffffffffffffffffffffffffffffffffff167f17307eab39ab6107e8899845ad3d59bd9653f200f220920489ca2b5937696c31836040516119d19190612530565b60405180910390a3505050565b6119e984848461143b565b6119f58484848461205a565b611a34576040517f08c379a0000000000000000000000000000000000000000000000000000000008152600401611a2b90613669565b60405180910390fd5b50505050565b606060405180602001604052806000815250905090565b6060611a5c8261129a565b6000611a66611a3a565b90506000815111611a865760405180602001604052806000815250611ab1565b80611a9084611734565b604051602001611aa1929190613030565b6040516020818303038152906040525b915050919050565b60606000825103611adb57604051806020016040528060008152509050611c2c565b6000604051806060016040528060408152602001613c4a6040913990506000600360028551611b0a9190612a65565b611b149190613689565b6004611b2091906136ba565b90506000602082611b319190612a65565b67ffffffffffffffff811115611b4a57611b49612848565b5b6040519080825280601f01601f191660200182016040528015611b7c5781602001600182028036833780820191505090505b509050818152600183018586518101602084015b81831015611beb576003830192508251603f8160121c168501518253600182019150603f81600c1c168501518253600182019150603f8160061c168501518253600182019150603f8116850151825360018201915050611b90565b600389510660018114611c055760028114611c1557611c20565b613d3d60f01b6002830352611c20565b603d60f81b60018303525b50505050508093505050505b919050565b611c4b8282604051806020016040528060008152506121e1565b5050565b611c5882611d9a565b611c97576040517f08c379a0000000000000000000000000000000000000000000000000000000008152600401611c8e9061376e565b60405180910390fd5b80600660008481526020019081526020016000209081611cb79190613925565b505050565b6001816000016000828254019250508190555050565b611d6c838383604051602401611cea939291906139f7565b6040516020818303038152906040527f1c7ec448000000000000000000000000000000000000000000000000000000007bffffffffffffffffffffffffffffffffffffffffffffffffffffffff19166020820180517bffffffffffffffffffffffffffffffffffffffffffffffffffffffff8381831617835250505050611d71565b505050565b60008151905060006a636f6e736f6c652e6c6f679050602083016000808483855afa5050505050565b60008073ffffffffffffffffffffffffffffffffffffffff16611dbc83611835565b73ffffffffffffffffffffffffffffffffffffffff1614159050919050565b6001811115611efb57600073ffffffffffffffffffffffffffffffffffffffff168473ffffffffffffffffffffffffffffffffffffffff1614611e6f5780600360008673ffffffffffffffffffffffffffffffffffffffff1673ffffffffffffffffffffffffffffffffffffffff1681526020019081526020016000206000828254611e679190613a35565b925050819055505b600073ffffffffffffffffffffffffffffffffffffffff168373ffffffffffffffffffffffffffffffffffffffff1614611efa5780600360008573ffffffffffffffffffffffffffffffffffffffff1673ffffffffffffffffffffffffffffffffffffffff1681526020019081526020016000206000828254611ef29190612a65565b925050819055505b5b50505050565b50505050565b600080600090507a184f03e93ff9f4daa797ed6e38ed64bf6a1f0100000000000000008310611f65577a184f03e93ff9f4daa797ed6e38ed64bf6a1f0100000000000000008381611f5b57611f5a612d59565b5b0492506040810190505b6d04ee2d6d415b85acef81000000008310611fa2576d04ee2d6d415b85acef81000000008381611f9857611f97612d59565b5b0492506020810190505b662386f26fc100008310611fd157662386f26fc100008381611fc757611fc6612d59565b5b0492506010810190505b6305f5e1008310611ffa576305f5e1008381611ff057611fef612d59565b5b0492506008810190505b612710831061201f57612710838161201557612014612d59565b5b0492506004810190505b60648310612042576064838161203857612037612d59565b5b0492506002810190505b600a8310612051576001810190505b80915050919050565b600061207b8473ffffffffffffffffffffffffffffffffffffffff1661223c565b156121d4578373ffffffffffffffffffffffffffffffffffffffff1663150b7a026120a46112e5565b8786866040518563ffffffff1660e01b81526004016120c69493929190613abe565b6020604051808303816000875af192505050801561210257506040513d601f19601f820116820180604052508101906120ff9190613b1f565b60015b612184573d8060008114612132576040519150601f19603f3d011682016040523d82523d6000602084013e612137565b606091505b50600081510361217c576040517f08c379a000000000000000000000000000000000000000000000000000000000815260040161217390613669565b60405180910390fd5b805181602001fd5b63150b7a0260e01b7bffffffffffffffffffffffffffffffffffffffffffffffffffffffff1916817bffffffffffffffffffffffffffffffffffffffffffffffffffffffff1916149150506121d9565b600190505b949350505050565b6121eb838361225f565b6121f8600084848461205a565b612237576040517f08c379a000000000000000000000000000000000000000000000000000000000815260040161222e90613669565b60405180910390fd5b505050565b6000808273ffffffffffffffffffffffffffffffffffffffff163b119050919050565b600073ffffffffffffffffffffffffffffffffffffffff168273ffffffffffffffffffffffffffffffffffffffff16036122ce576040517f08c379a00000000000000000000000000000000000000000000000000000000081526004016122c590613b98565b60405180910390fd5b6122d781611d9a565b15612317576040517f08c379a000000000000000000000000000000000000000000000000000000000815260040161230e90613c04565b60405180910390fd5b612325600083836001611ddb565b61232e81611d9a565b1561236e576040517f08c379a000000000000000000000000000000000000000000000000000000000815260040161236590613c04565b60405180910390fd5b6001600360008473ffffffffffffffffffffffffffffffffffffffff1673ffffffffffffffffffffffffffffffffffffffff16815260200190815260200160002060008282540192505081905550816002600083815260200190815260200160002060006101000a81548173ffffffffffffffffffffffffffffffffffffffff021916908373ffffffffffffffffffffffffffffffffffffffff160217905550808273ffffffffffffffffffffffffffffffffffffffff16600073ffffffffffffffffffffffffffffffffffffffff167fddf252ad1be2c89b69c2b068fc378daa952ba7f163c4a11628f55a4df523b3ef60405160405180910390a4612478600083836001611f01565b5050565b6000604051905090565b600080fd5b600080fd5b60007fffffffff0000000000000000000000000000000000000000000000000000000082169050919050565b6124c581612490565b81146124d057600080fd5b50565b6000813590506124e2816124bc565b92915050565b6000602082840312156124fe576124fd612486565b5b600061250c848285016124d3565b91505092915050565b60008115159050919050565b61252a81612515565b82525050565b60006020820190506125456000830184612521565b92915050565b6000819050919050565b61255e8161254b565b82525050565b60006020820190506125796000830184612555565b92915050565b600081519050919050565b600082825260208201905092915050565b60005b838110156125b957808201518184015260208101905061259e565b60008484015250505050565b6000601f19601f8301169050919050565b60006125e18261257f565b6125eb818561258a565b93506125fb81856020860161259b565b612604816125c5565b840191505092915050565b6000602082019050818103600083015261262981846125d6565b905092915050565b61263a8161254b565b811461264557600080fd5b50565b60008135905061265781612631565b92915050565b60006020828403121561267357612672612486565b5b600061268184828501612648565b91505092915050565b600073ffffffffffffffffffffffffffffffffffffffff82169050919050565b60006126b58261268a565b9050919050565b6126c5816126aa565b82525050565b60006020820190506126e060008301846126bc565b92915050565b6126ef816126aa565b81146126fa57600080fd5b50565b60008135905061270c816126e6565b92915050565b6000806040838503121561272957612728612486565b5b6000612737858286016126fd565b925050602061274885828601612648565b9150509250929050565b60008060006060848603121561276b5761276a612486565b5b6000612779868287016126fd565b935050602061278a868287016126fd565b925050604061279b86828701612648565b9150509250925092565b6000602082840312156127bb576127ba612486565b5b60006127c9848285016126fd565b91505092915050565b6127db81612515565b81146127e657600080fd5b50565b6000813590506127f8816127d2565b92915050565b6000806040838503121561281557612814612486565b5b6000612823858286016126fd565b9250506020612834858286016127e9565b9150509250929050565b600080fd5b600080fd5b7f4e487b7100000000000000000000000000000000000000000000000000000000600052604160045260246000fd5b612880826125c5565b810181811067ffffffffffffffff8211171561289f5761289e612848565b5b80604052505050565b60006128b261247c565b90506128be8282612877565b919050565b600067ffffffffffffffff8211156128de576128dd612848565b5b6128e7826125c5565b9050602081019050919050565b82818337600083830152505050565b6000612916612911846128c3565b6128a8565b90508281526020810184848401111561293257612931612843565b5b61293d8482856128f4565b509392505050565b600082601f83011261295a5761295961283e565b5b813561296a848260208601612903565b91505092915050565b6000806000806080858703121561298d5761298c612486565b5b600061299b878288016126fd565b94505060206129ac878288016126fd565b93505060406129bd87828801612648565b925050606085013567ffffffffffffffff8111156129de576129dd61248b565b5b6129ea87828801612945565b91505092959194509250565b60008060408385031215612a0d57612a0c612486565b5b6000612a1b858286016126fd565b9250506020612a2c858286016126fd565b9150509250929050565b7f4e487b7100000000000000000000000000000000000000000000000000000000600052601160045260246000fd5b6000612a708261254b565b9150612a7b8361254b565b9250828201905080821115612a9357612a92612a36565b5b92915050565b7f4e487b7100000000000000000000000000000000000000000000000000000000600052602260045260246000fd5b60006002820490506001821680612ae057607f821691505b602082108103612af357612af2612a99565b5b50919050565b7f4552433732313a20617070726f76616c20746f2063757272656e74206f776e6560008201527f7200000000000000000000000000000000000000000000000000000000000000602082015250565b6000612b5560218361258a565b9150612b6082612af9565b604082019050919050565b60006020820190508181036000830152612b8481612b48565b9050919050565b7f4552433732313a20617070726f76652063616c6c6572206973206e6f7420746f60008201527f6b656e206f776e6572206f7220617070726f76656420666f7220616c6c000000602082015250565b6000612be7603d8361258a565b9150612bf282612b8b565b604082019050919050565b60006020820190508181036000830152612c1681612bda565b9050919050565b7f4552433732313a2063616c6c6572206973206e6f7420746f6b656e206f776e6560008201527f72206f7220617070726f76656400000000000000000000000000000000000000602082015250565b6000612c79602d8361258a565b9150612c8482612c1d565b604082019050919050565b60006020820190508181036000830152612ca881612c6c565b9050919050565b600081905092915050565b7f46495253545f574f524400000000000000000000000000000000000000000000600082015250565b6000612cf0600a83612caf565b9150612cfb82612cba565b600a82019050919050565b6000612d118261257f565b612d1b8185612caf565b9350612d2b81856020860161259b565b80840191505092915050565b6000612d4282612ce3565b9150612d4e8284612d06565b915081905092915050565b7f4e487b7100000000000000000000000000000000000000000000000000000000600052601260045260246000fd5b6000612d938261254b565b9150612d9e8361254b565b925082612dae57612dad612d59565b5b828206905092915050565b7f4e487b7100000000000000000000000000000000000000000000000000000000600052603260045260246000fd5b7f434f4c4f52000000000000000000000000000000000000000000000000000000600082015250565b6000612e1e600583612caf565b9150612e2982612de8565b600582019050919050565b6000612e3f82612e11565b9150612e4b8284612d06565b915081905092915050565b7f4552433732313a20696e76616c696420746f6b656e2049440000000000000000600082015250565b6000612e8c60188361258a565b9150612e9782612e56565b602082019050919050565b60006020820190508181036000830152612ebb81612e7f565b9050919050565b7f4552433732313a2061646472657373207a65726f206973206e6f74206120766160008201527f6c6964206f776e65720000000000000000000000000000000000000000000000602082015250565b6000612f1e60298361258a565b9150612f2982612ec2565b604082019050919050565b60006020820190508181036000830152612f4d81612f11565b9050919050565b7f5345434f4e445f574f5244000000000000000000000000000000000000000000600082015250565b6000612f8a600b83612caf565b9150612f9582612f54565b600b82019050919050565b6000612fab82612f7d565b9150612fb78284612d06565b915081905092915050565b7f54484952445f574f524400000000000000000000000000000000000000000000600082015250565b6000612ff8600a83612caf565b915061300382612fc2565b600a82019050919050565b600061301982612feb565b91506130258284612d06565b915081905092915050565b600061303c8285612d06565b91506130488284612d06565b91508190509392505050565b7f4f4e4c5920313030204e4654732043414e204245204d494e5445442100000000600082015250565b600061308a601c8361258a565b915061309582613054565b602082019050919050565b600060208201905081810360008301526130b98161307d565b9050919050565b60006130cc8286612d06565b91506130d88285612d06565b91506130e48284612d06565b9150819050949350505050565b60008190508160005260206000209050919050565b6000815461311381612ac8565b61311d8186612caf565b94506001821660008114613138576001811461314d57613180565b60ff1983168652811515820286019350613180565b613156856130f1565b60005b8381101561317857815481890152600182019150602081019050613159565b838801955050505b50505092915050565b7f3c2f746578743e3c2f7376673e00000000000000000000000000000000000000600082015250565b60006131bf600d83612caf565b91506131ca82613189565b600d82019050919050565b60006131e18287613106565b91506131ed8286612d06565b91506131f98285613106565b91506132058284612d06565b9150613210826131b2565b915081905095945050505050565b7f7b226e616d65223a202200000000000000000000000000000000000000000000600082015250565b6000613254600a83612caf565b915061325f8261321e565b600a82019050919050565b7f222c20226465736372697074696f6e223a20224120686967686c79206163636c60008201527f61696d656420636f6c6c656374696f6e206f6620737175617265732e222c202260208201527f696d616765223a2022646174613a696d6167652f7376672b786d6c3b6261736560408201527f36342c0000000000000000000000000000000000000000000000000000000000606082015250565b6000613312606383612caf565b915061331d8261326a565b606382019050919050565b7f227d000000000000000000000000000000000000000000000000000000000000600082015250565b600061335e600283612caf565b915061336982613328565b600282019050919050565b600061337f82613247565b915061338b8285612d06565b915061339682613305565b91506133a28284612d06565b91506133ad82613351565b91508190509392505050565b7f646174613a6170706c69636174696f6e2f6a736f6e3b6261736536342c000000600082015250565b60006133ef601d83612caf565b91506133fa826133b9565b601d82019050919050565b6000613410826133e2565b915061341c8284612d06565b915081905092915050565b600060408201905061343c60008301856126bc565b6134496020830184612555565b9392505050565b7f4552433732313a207472616e736665722066726f6d20696e636f72726563742060008201527f6f776e6572000000000000000000000000000000000000000000000000000000602082015250565b60006134ac60258361258a565b91506134b782613450565b604082019050919050565b600060208201905081810360008301526134db8161349f565b9050919050565b7f4552433732313a207472616e7366657220746f20746865207a65726f2061646460008201527f7265737300000000000000000000000000000000000000000000000000000000602082015250565b600061353e60248361258a565b9150613549826134e2565b604082019050919050565b6000602082019050818103600083015261356d81613531565b9050919050565b60006135808284612d06565b915081905092915050565b7f4552433732313a20617070726f766520746f2063616c6c657200000000000000600082015250565b60006135c160198361258a565b91506135cc8261358b565b602082019050919050565b600060208201905081810360008301526135f0816135b4565b9050919050565b7f4552433732313a207472616e7366657220746f206e6f6e20455243373231526560008201527f63656976657220696d706c656d656e7465720000000000000000000000000000602082015250565b600061365360328361258a565b915061365e826135f7565b604082019050919050565b6000602082019050818103600083015261368281613646565b9050919050565b60006136948261254b565b915061369f8361254b565b9250826136af576136ae612d59565b5b828204905092915050565b60006136c58261254b565b91506136d08361254b565b92508282026136de8161254b565b915082820484148315176136f5576136f4612a36565b5b5092915050565b7f45524337323155524953746f726167653a2055524920736574206f66206e6f6e60008201527f6578697374656e7420746f6b656e000000000000000000000000000000000000602082015250565b6000613758602e8361258a565b9150613763826136fc565b604082019050919050565b600060208201905081810360008301526137878161374b565b9050919050565b60006020601f8301049050919050565b600082821b905092915050565b6000600883026137db7fffffffffffffffffffffffffffffffffffffffffffffffffffffffffffffffff8261379e565b6137e5868361379e565b95508019841693508086168417925050509392505050565b6000819050919050565b600061382261381d6138188461254b565b6137fd565b61254b565b9050919050565b6000819050919050565b61383c83613807565b61385061384882613829565b8484546137ab565b825550505050565b600090565b613865613858565b613870818484613833565b505050565b5b818110156138945761388960008261385d565b600181019050613876565b5050565b601f8211156138d9576138aa816130f1565b6138b38461378e565b810160208510156138c2578190505b6138d66138ce8561378e565b830182613875565b50505b505050565b600082821c905092915050565b60006138fc600019846008026138de565b1980831691505092915050565b600061391583836138eb565b9150826002028217905092915050565b61392e8261257f565b67ffffffffffffffff81111561394757613946612848565b5b6139518254612ac8565b61395c828285613898565b600060209050601f83116001811461398f576000841561397d578287015190505b6139878582613909565b8655506139ef565b601f19841661399d866130f1565b60005b828110156139c5578489015182556001820191506020850194506020810190506139a0565b868310156139e257848901516139de601f8916826138eb565b8355505b6001600288020188555050505b505050505050565b60006060820190508181036000830152613a1181866125d6565b9050613a206020830185612555565b613a2d60408301846126bc565b949350505050565b6000613a408261254b565b9150613a4b8361254b565b9250828203905081811115613a6357613a62612a36565b5b92915050565b600081519050919050565b600082825260208201905092915050565b6000613a9082613a69565b613a9a8185613a74565b9350613aaa81856020860161259b565b613ab3816125c5565b840191505092915050565b6000608082019050613ad360008301876126bc565b613ae060208301866126bc565b613aed6040830185612555565b8181036060830152613aff8184613a85565b905095945050505050565b600081519050613b19816124bc565b92915050565b600060208284031215613b3557613b34612486565b5b6000613b4384828501613b0a565b91505092915050565b7f4552433732313a206d696e7420746f20746865207a65726f2061646472657373600082015250565b6000613b8260208361258a565b9150613b8d82613b4c565b602082019050919050565b60006020820190508181036000830152613bb181613b75565b9050919050565b7f4552433732313a20746f6b656e20616c7265616479206d696e74656400000000600082015250565b6000613bee601c8361258a565b9150613bf982613bb8565b602082019050919050565b60006020820190508181036000830152613c1d81613be1565b905091905056fe416e204e465420772f20494420257320686173206265656e206d696e74656420746f2025734142434445464748494a4b4c4d4e4f505152535455565758595a6162636465666768696a6b6c6d6e6f707172737475767778797a303132333435363738392b2fa264697066735822122010288f282375e09e01a603be4775d22317fa81c8206d1a3a93a7a7259cdb6bbb64736f6c634300081100333c73766720786d6c6e733d27687474703a2f2f7777772e77332e6f72672f323030302f73766727207072657365727665417370656374526174696f3d27784d696e594d696e206d656574272076696577426f783d273020302033353020333530273e3c7374796c653e2e62617365207b2066696c6c3a2077686974653b20666f6e742d66616d696c793a2073657269663b20666f6e742d73697a653a20323470783b207d3c2f7374796c653e3c726563742077696474683d273130302527206865696768743d2731303025272066696c6c3d27272f3e3c7465787420783d273530252720793d273530252720636c6173733d27626173652720646f6d696e616e742d626173656c696e653d276d6964646c652720746578742d616e63686f723d276d6964646c65273e",
  "linkReferences": {},
  "deployedLinkReferences": {}
}